:100000000C949A010C94B7010C94B7010C94A21CA7
:100010000C94B7010C94B7010C94B7010C94B70180
:100020000C94B7010C94B7010C9434180C94F0178D
:100030000C9431190C94B7010C94B7010C94B701CE
:100040000C94B7010C94B7010C94B7010C94B70150
:100050000C94B7010C940D190C94B7010C94B701D2
:100060000C94B7010C94B7010C94B7010C94B70130
:100070000C94B7010C94B7010C94B7010C94B70120
:100080000C94B7010C94B7010C94B7010C94B70110
:100090000C94B7010C94B7010C94B7010C94B70100
:1000A0000C94B7010C94B7010C94B701290014000B
:1000B0001A00090013000A002A00040015001600A7
:1000C00017000700E0001D001B00060019000500D6
:1000D0000000000000000768DA5C2A424C00330090
:1000E0001C0018000F000D00340012000C00080066
:1000F00011000B00E20038003700360010000E003F
:100100000000000000000F742B622C4129003A000F
:100110003B003C003D0047002A003E003F004000FD
:1001200041004600E0004200430044004500480012
:100130000000000000000768DA5C2A424C0055000D
:10014000610060005F002E02200262005E005D0020
:100150005C006700E20031005B005A005900560065
:100160000000000000000F742B622C4129004900A0
:100170004A0052004D004B002A0039005000510047
:100180004F004E00E0007A007B007C007D007E0086
:100190000000000000000768DA5C2A424C003000D2
:1001A0002702260224022F003502300223022202F7
:1001B00021022F02E200350020021F021E022D0242
:1001C0000000000000000F742B622C4105010902A1
:1001D000A10185020901A1000509190129081500DD
:1001E0002501950875018102050109300931158144
:1001F000257F95027508810609381581257F9501AF
:1002000075088106050C0A38021581257F95017550
:10021000088106C0C005010980A101850319012AD2
:10022000B700150126B700950175108100C0050CB7
:100230000901A101850419012AA002150126A002C5
:10024000950175108100C005010906A1018506050B
:100250000719E029E71500250195087501810205B8
:1002600007190029EF1500250195F0750181020598
:1002700008190129059505750191029501750391EC
:1002800001C005010906A101050719E029E71500CC
:100290002501950875018102950175088101050701
:1002A000190029FF150026FF009506750881000535
:1002B00008190129059505750191029501750391AC
:1002C00001C009023B00020100A0FA09040000017C
:1002D00003010100092111010001224000070581ED
:1002E00003080001090401000103000000092111B5
:1002F00001000122B600070582032000011201005F
:100300000200000008534601000100010200010C38
:100310000343006F0072006E00650000001003666A
:10032000006F006F007300740061006E0000000435
:100330000309040011241FBECFEFDAE0DEBFCDBFFA
:1003400011E0A0E0B1E0E6E2FDE302C005900D920D
:10035000A436B107D9F722E0A4E6B1E001C01D92AE
:10036000A139B207E1F70E9458190C947B1E0C9436
:100370000000FC01AC014C5F5F4F8FEF91E32191D6
:10038000822728E030E087FF09C0880F89272150A5
:100390003109C9F7E417F50791F70895880FF7CFEA
:1003A000E8EDF0E080818E7F80831092E200109271
:1003B000DA001092E100A0EEB0E08C9181608C93A5
:1003C00080818F77808319BCA7EDB0E08C918E7F00
:1003D0008C9380818F7E808310925F02089520919C
:1003E000E4003091E50095E6A9012091EC00822F10
:1003F000817020FF06C08091E80080FF06C080E089
:1004000008952091E80022FD1AC08091840288237B
:1004100089F0853089F08091EB0085FD0FC0209137
:10042000E4003091E50042175307F9F29150E1F6EC
:1004300084E0089582E0089583E0089581E00895BE
:10044000EF92FF920F931F93CF937C018B010E9439
:10045000EF01C82F811117C08091E80085FD0BC006
:100460008091E8008E778093E8000E94EF01882356
:1004700099F3C82F08C0F70181917F018093F100A3
:100480000150110949F78C2FCF911F910F91FF90C7
:10049000EF9008958091860287FF13C08091E80055
:1004A00082FF06C08091E8008B778093E80004C04B
:1004B000809184028111F2CF089580918402882373
:1004C000D9F38091E80080FFF8CF8091E8008E7723
:1004D000ECCF982F9093E900242F762F50E08917C6
:1004E00031F07091EC002091ED005091F00021FD71
:1004F00007C09F5F973071F78093E90081E008950E
:100500003091EB003E7F3093EB003091ED003D7F6A
:100510003093ED003091EB0031603093EB0070933D
:10052000EC002093ED005093F0002091EE0027FDA9
:10053000E0CF80E00895B0E0A0E0E1EAF2E00C94C2
:10054000C81DC8EDD0E088818F7E8883E7EDF0E09C
:1005500080818160808384E082BF81E080935F023C
:1005600088818E7F888302EE10E0F801108210925D
:10057000DA0081EEC82ED12CF601108288818F77A7
:10058000888388818068888388818F7D888319BC6F
:1005900010928402109285021092830210928202BD
:1005A00090EEE92EF12CF70180818B7F808388818A
:1005B0008160888342E060E080E00E946902F60189
:1005C00080818E7F8083F80180818160808380813B
:1005D00088608083F70180818E7F8083888180613D
:1005E0008883CDB7DEB7E8E00C94E41DFC01809170
:1005F0008C0290918D0286179707A0F06115710506
:1006000029F49091E8009E779093E80090E06115BE
:10061000710551F4911108C08091E80082FF34C047
:1006200080E00895BC01F2CF809184028823C1F15B
:100630008530C1F18091E80083FD30C08091E800F1
:1006400082FDEACF8091E80080FFE1CF8091F30046
:100650002091F200382F6115710519F0283031050D
:1006600058F091E02830310509F090E02091E80041
:100670002E772093E800CBCF81918093F1006150D9
:1006800071092F5F3F4FE7CF80918402882341F0AB
:10069000853041F08091E80083FFBECF81E008956E
:1006A00082E0089583E0089508958091610208959D
:1006B00087E797E7909301088093000888E19AE024
:1006C0000FB6F894A895809360000FBE90936000D9
:1006D000FFCF9C014FB7F89480915602909157023A
:1006E000A0915802B09159024FBF821B930B0895FD
:1006F0002FB7F8946091560270915702809158027A
:10070000909159022FBF08952FB7F8948091560207
:1007100090915702A0915802B09159022FBF0895AD
:10072000209125012223C9F020915A0227FF15C0EC
:10073000E62FE695E695E695EE31D8F4E80FF92F29
:10074000F11D677021E030E001C0220F6A95EAF7E1
:1007500020958281282322830895FC0132960896F1
:100760002191621303C0DF0111971C92E817F9076A
:10077000B9F70895209125012223C1F020915A0252
:1007800027FF14C0E62FE695E695E695EE31F8F4DE
:10079000E80FF92FF11D677021E030E001C0220F52
:1007A0006A95EAF78281822B82830895FC01329652
:1007B0002FEF30E04191641751F02F3F19F44111B0
:1007C00001C0232F3F5F3630A9F72F3F09F408956A
:1007D000820F911D27FD9A95FC0162830895209157
:1007E0005302309154022817390771F09093540244
:1007F00080935302E0915102F0915202309721F020
:100800000084F185E02D0995089520914F023091E3
:1008100050022817390771F09093500280934F02CD
:10082000E0915102F0915202309721F00680F78159
:10083000E02D099508950E9484039C0190914B023C
:1008400080914C02982B21F030934802209347026C
:1008500090914D0280914E02982B21F030934602E8
:1008600020934502E0915102F0915202309749F0F5
:1008700082E0809349020480F581E02D89E492E0D2
:100880000995089540914B028D3E59F480914C0298
:1008900087FF0DC010924C0241110BC01092430211
:1008A00008C08E3E81F480914C0218169CF34423BC
:1008B00081F080914D0290914E02892B09F05AC02F
:1008C0001092420208958F3E49F447FFF0CF1092F4
:1008D0004B0280914C028111ECCFE0CF803F19F4A4
:1008E0001416ACF3E4CF90914D02893F29F4191608
:1008F000F4F610924D02DBCF8A3F19F497FFD7CF61
:10090000F8CF90914E028B3F29F497FFD0CF1092F1
:100910004E02CDCF8C3F19F41916CCF3C8CF9FE00F
:10092000980F983090F4815F990B21E030E0B90185
:1009300002C0660F771F8A95E2F7CB0180959091F0
:100940004A02892380934A02B2CF8D3F31F48091CD
:1009500044028E7F80934402AACF8E3F21F480917F
:1009600044028D7FF7CF8F3F09F0A1CF80914402E1
:100970008B7FF0CF08958091440280FD16C081FDE9
:1009800016C082FD16C0809142028823A1F08832F1
:1009900080F428E0829FC001112468E270E00E9488
:1009A000F51D862F672B39F0089582E0089584E0C5
:1009B000089588E0089581E008958091440280FDC3
:1009C00014C081FD14C082FD16C0809143028823AB
:1009D00081F08E3180F420E5829FC00111246EE108
:1009E00070E00E94F51D862F089584E1089588E245
:1009F000089588E0089580E508958D3E31F40E94C1
:100A0000DD04819580934C0208958E3E19F40E9476
:100A1000DD04F8CF8F3E31F40E94DD048195809390
:100A20004B020895803F19F40E94DD04F8CF893FFE
:100A300029F40E94BB0480934D0208958A3F21F45B
:100A40000E94BB048195F7CF8B3F31F40E94BB0419
:100A5000819580934E0208958C3F19F40E94BB0447
:100A6000F8CF9FE0980F983070F4815F990B21E0E8
:100A700030E001C0220F8A95EAF780914A02822B6A
:100A800080934A0208958D3F31F480914402816041
:100A90008093440208958E3F21F480914402826045
:100AA000F7CF8F3FB9F7809144028460F1CF80E0A7
:100AB0000895F894E82FE295EF70F0E031A1282F27
:100AC0002F7081E090E001C0880F2A95EAF7982FF7
:100AD0009095932391A392A1892B82A37894089552
:100AE00090915A0292FF06C0282F28712830F9F4FD
:100AF000877F846093FF06C0282F28712831F1F486
:100B0000877E846120915B0220FF06C0382F3871F8
:100B10003830D9F4877F816021FF06C0282F2871E3
:100B20002831D1F4877E816194FD877E0895282F36
:100B300024712430F9F68B7F8860DCCF282F247154
:100B4000243101F78B7E8861DDCF382F3171313050
:100B500019F78E7F8860E0CF282F2171213121F78E
:100B60008E7E8861E1CF972F7830A8F4663098F4B4
:100B700070E026E0929F600D711D1124FB0190E34F
:100B8000899FE00DF11D1124EE0FFF1FE455FF4F6B
:100B900085919491089580E090E00895CF93DF933C
:100BA000EC0182389105B1F108F040C08133910524
:100BB00009F49DC048F58932910509F48DC08A97E2
:100BC00009F49CC0C11521E5D20708F0C3C0C115C6
:100BD00030E5D30708F01EC1C83ED10508F0A3C018
:100BE000C03ED10588F5C83AD10508F08EC0C53A97
:100BF000D10508F007C1C130D10531F1209721F1AD
:100C0000C430D10508F545C08533910509F45FC0AE
:100C1000C997C1F680915A02837009F043C180914F
:100C20005B0283FF11C0C9E2D0E00EC0833E910594
:100C300099F170F4803E910501F1823E910511F623
:100C400080915A0282FD21C0CE01DF91CF9108959B
:100C5000863E910561F1873E910571F1843E9105D3
:100C600009F0B0CF80915B0281FFEECF80915A02F4
:100C7000C7EED0E084FD0DC0E7CF80915A0280FD21
:100C800033C090915B0290FFDFCFC3EED0E084FFD2
:100C9000DBCFD0E0C0E0D8CF80915A0282FDFFC008
:100CA00090915B0290FDFEC084FFCECFF2CF809189
:100CB0005A0283FDDDCFC8CF80915A0283FDF5C073
:100CC00090915B0291FFF0CFC4EED0E0BDCF809158
:100CD0005A0285FFB9CFA7CF80915A0285FDE8C09F
:100CE00080915B0283FFB0CFC9E3D0E0ADCF8091AC
:100CF0005A0286FFA9CFCAE2D0E0A6CF80915A025D
:100D000086FFA2CFC1E3D0E09FCFCF3BD10508F64D
:100D1000C85AD0E0CC0FDD1FC75DDE4F0990D881E7
:100D2000C02DD46491CFC11540E2D40758F4C11549
:100D300081E0D80708F088CFCD3ED10508F4A9CFCF
:100D4000D06582CFC11520E4D20708F4A2CFDF70AE
:100D5000D06A7ACFC11535E5D30718F5C11544E53A
:100D6000D40708F084C0C11583E5D80708F06BC02C
:100D7000C11522E5D20708F461C0CE01837099271E
:100D800021E030E002C0220F331F8A95E2F7C695BA
:100D9000C69580E2C89FE0011124C22BD32BDC68EA
:100DA00053CFC11539E5D307A8F4C11548E5D407D9
:100DB00008F062C0C11586E5D80708F06ACF8C2F0D
:100DC0000E947005C82FD0E0DC2FCC27CC27DF7124
:100DD000D0623ACFC1152AE5D20708F452C0CE013D
:100DE00090568115904208F054CF8D2F8F710E943C
:100DF000700590E0982F882788279F719C012C2BE5
:100E0000E901E6CFC55AD0E0CA5DDE4FC881D0E027
:100E1000D0641ACFCE018370992721E030E002C060
:100E2000220F331F8A95E2F7C695C69540E2C49F0C
:100E3000E0011124C22BD32BDD6806CFDC2FCC2799
:100E4000C16FD06A01CFCE018370992721E030E0D5
:100E500002C0220F331F8A95E2F7C695C69540E27D
:100E6000C49FE0011124C22BD32BDA68EDCEDC2F16
:100E7000CC27C46FD06AE8CEDC2FCC27C06FD06AF5
:100E8000E3CE8C2F8F700E94700534E0D695C79505
:100E90003A95E1F7CF709C2FEC01D069D5CEC2EE28
:100EA000D0E0D2CEC0EED0E0CFCEC6EED0E0CCCEF9
:100EB000C5E3D0E0C9CE8091FA0181111092FA0108
:100EC000089580959091F90198239093F9010895E0
:100ED0008091D6019091A501981301C008958F5F6C
:100EE0008770FACFB0E0A0E0E8E7F7E00C94C71D08
:100EF0007C0100912C0210912D028091FB019091B8
:100F0000FC01082B192BCFE0D0E0CC24C394D12CCA
:100F1000BC2EC6010C2E02C0880F991F0A94E2F75E
:100F200080239123892B49F4219790F7B12C8B2DA5
:100F3000CDB7DEB7E9E00C94E31DB7018C2F0E941A
:100F4000B3050E94CE05019779F3F1CFCF93DF93DC
:100F5000EC010E947207BE010E94B3050E94CE05FB
:100F6000DF91CF910895983078F5863068F5E82FB5
:100F7000F0E086E0989FE00DF11D11249E2F977000
:100F800083E0F695E7958A95E1F7EE0FFF1FEE0FE8
:100F9000FF1FE957FE4F50E040E080E0219130E034
:100FA000092E02C0369527950A94E2F7217033275F
:100FB000042E01C0220F0A94EAF7822B4F5F5F4F85
:100FC0004430510559F7089580E00895983098F518
:100FD000863088F5E82FF0E086E0989FE00DF11D5F
:100FE00011248E2F877041E001C0440F8A95EAF7E3
:100FF00083E0F695E7958A95E1F7EE0FFF1FEE0F78
:10100000FF1FE957FE4F30E020E070E05191DF0113
:101010001197CB01022E02C0969587950A94E2F7AC
:10102000817081958527842385278C932F5F3F4F7F
:101030002430310559F70895FC0183819481892B6F
:1010400029F08081918189238F3F51F480E00895B8
:10105000843FE1F717C0883EA8F0813FB9F712C07E
:10106000808191810E94A60792959F70963099F396
:1010700058F4925F9F70923048F7803F19F040F724
:10108000883E20F781E008959A5FF4CF80935C0258
:1010900070935E0260935D0280918402843001F55A
:1010A00082E08093E9008FEF9091E800815095FDF8
:1010B00006C095ED9A95F1F700008111F5CF80916A
:1010C000E80085FF0DC050E040E063E070E08CE593
:1010D00092E00E9420028091E8008E778093E800E1
:1010E0000895BC0184E00E9446080895BC0183E095
:1010F0000E94460808959C0182E08093E9009FEFDA
:101100008091E800915085FD06C085ED8A95F1F744
:1011100000009111F5CF8091E80085FF0CC050E0F0
:1011200040E066E070E0C9010E9420028091E80082
:101130008E778093E8000895CF93DF93EC01809140
:1011400025018823B1F180915A0287FF32C060E205
:1011500082E08093E9008FEF9091E800815095FD47
:1011600006C095ED9A95F1F700008111F5CF8091B9
:10117000E80085FF1BC08091250170E050E040E051
:10118000811104C050E040E068E070E0CE010E94B0
:1011900020028091E8008E778093E80080E2FE01D3
:1011A000A2E6B2E001900D928A95E1F7DF91CF912E
:1011B000089568E081E0CDCFB0E0A0E0E2EEF8E095
:1011C0000C94C61D7C015B016A0180911D0201E047
:1011D00010E08A3010F40AE010E0C1E0D0E0B50180
:1011E000C701F6010995811104C021960C171D074E
:1011F0002CF4CDB7DEB7EAE00C94E21DCC9F900151
:10120000CD9F300D300D112490E080E045E34A95EC
:10121000F1F70000019682179307C1F7E0CF8091A4
:101220000702811110C08091D80080618093D8009E
:101230008AE18A95F1F700C08091D90080FF0AC049
:1012400081E08093070281E090910702913009F0DC
:1012500080E0089582E0809307020E94D0011092FE
:101260008402F1CF0E940F09882359F0E0915102C6
:10127000F0915202309729F00190F081E02D09950C
:10128000089580E008958091F9019091F801892BEB
:10129000809366019091FA019923A1F0892B8093A4
:1012A0006601809125018823E1F180915A0287FF30
:1012B00038C08EE1E8E6F1E090E08150A0F59111B0
:1012C0000E945B0740E250E068ED71E086E691E045
:1012D0000E94651E892B21F180E2E6E6F1E0A8ED8F
:1012E000B1E001900D928A95E1F7E0915102F09101
:1012F00052023097A9F080912501882359F08091FE
:101300005A0287FF07C0809166018093670186E0DB
:10131000809366010280F381E02D86E691E00995D5
:10132000089586E0C7CF2191222339F29F5FC5CF70
:1013300090E080E00E94050490E080E00E94EF03CE
:101340001092F8010E94430986E0E9E4F2E0DF012F
:101350001D928A95E9F71092430210924202109270
:1013600044020E941B04089590932D0280932C0246
:101370000E949809089521E030E002C0220F331F37
:101380008A95E2F72095309580912C0290912D025C
:10139000822393230E94B40908959091D7018095E8
:1013A00089238093D701282F277091F4282F082EA6
:1013B000000C330B9217130659F090915B0292FFC9
:1013C00007C08595859585950E94BB091092D70128
:1013D000089521E030E002C0220F331F8A95E2F722
:1013E00080912C0290912D02822B932B0E94B409A4
:1013F00008959093FC018093FB010E949809089541
:10140000882321F00E9461070E94430908958823E0
:1014100039F09091F901982B9093F9010E944309BA
:101420000895882391F19CEF980F913A40F4682F2A
:1014300086E691E00E9490030E944309089590E29D
:10144000980F983050F4877091E001C0990F8A95F9
:10145000EAF7892F0E946107EFCF9BE5980F933041
:1014600028F490E080E00E940504089598E5980F24
:10147000973128F490E080E00E94EF0308958D3EBC
:1014800020F00E9442040E941B040895CF93C82FAD
:101490008823D1F18CEF8C0F813AC0F58091250122
:1014A000882311F180915A0287FF1EC0EC2FE69528
:1014B000E695E695F0E0EA59FE4F828190E04C2FE8
:1014C000477021E030E002C0220F331F4A95E2F757
:1014D00082239323892B89F06C2F86E691E00E946A
:1014E00090030E94430909C0E8E6F1E08191C81722
:1014F00099F381E0EE36F807C9F76C2F86E691E0A4
:101500000E94BA030E944309CF91089580E28C0F94
:10151000883068F4C77021E030E001C0220FCA951E
:10152000EAF78091F901822B8093F901EBCFEBE58B
:10153000EC0FE33040F4F0E0EA5DFE4F808190E094
:101540000E940504E1CFE8E5EC0FE73150F4F0E04C
:10155000EE0FFF1FE75DFE4F808191810E94EF0338
:10156000D3CFCD3E88F28C2F0E94FD040E941B0435
:10157000CBCF0F931F93CF93DF93C62FD42F022F80
:10158000FC0182818823A9F0609390020E94840369
:1015900090938F0280938E02C77081E001C0880F04
:1015A000CA95EAF70E94070ADF91CF911F910F9128
:1015B000089580919002681335C080918E029091B9
:1015C0008F020E946903883C910560F510E21D0FAF
:1015D000CD17B9F080E28C0F883040F4C77081E0FD
:1015E00001C0880FCA95EAF70E94000A183048F433
:1015F00081E09D2F977001C0880F9A95EAF70E94AD
:10160000070A802F0E94460A802F0E94110A183074
:1016100058F6D77081E001C0880FDA95EAF70E948A
:10162000000AC2CFC77081E001C0880FCA95EAF7EF
:10163000F6CFCF9384E090E00E94231EC82F82E271
:1016400090E00E94231E982F8C2FCF910895109226
:10165000F90180912501E8E6F1E0882361F08091AD
:101660005A0287FF08C08EE1DF011D928A95E9F7D3
:101670000E949809089586E0F7CFAAE2B0E0E3E47B
:10168000FBE00C94CD1D86E892E02091F100FC0176
:101690002193CF01F2E08E389F07B9F7809187023E
:1016A000833009F470C0B8F4813009F447C0823047
:1016B00009F4B1C08091E80083FF7EC28091860268
:1016C000909187029A3008F077C2E92FF0E0E35852
:1016D000F14E0C94091E8A3009F48CC08B3009F449
:1016E0006FC0893039F780918602813219F7809175
:1016F0008A0290918B020297E8F68091E800877F3A
:101700008093E8008091E80082FF38C09091F30058
:101710008091F200029731F48091F100813011F054
:10172000863021F48091F100809361028091E8007D
:101730008B778093E8000E944A02BCCF809186029A
:10174000813A09F0B7CF8091E800877F8093E80065
:1017500080918A0290918B02892B61F460E282E68B
:1017600092E070E00E94F6028091E8008B7780930F
:10177000E800A0CF60E090E080E0F3CF80918402A9
:101780008111C0CF97CF80918602813A09F092CF24
:1017900080918A0290918B02892B09F08BCF8091E6
:1017A000E800877F8093E8008091E80080FFFCCF0D
:1017B000809125018093F1008091E8008E77B9CF68
:1017C00080918602813209F075CF80918A029091D2
:1017D0008B02892B09F06ECF8091E800877F809380
:1017E000E8000E944A0280918802809325010E94AD
:1017F000270B60CF80918602813209F05BCF809108
:10180000E800877F8093E8000E944A028091890265
:10181000809360024FCF80918602813A09F04ACFCF
:101820008091E800877F8093E8008091E80080FF46
:10183000FCCF80916002BECF803899F0823809F0E9
:10184000BBC180918A028F70873008F0B5C1809348
:10185000E9008091EB0085FB882780F91092E90070
:1018600006C08091820290918302911182609091D2
:10187000E800977F9093E8008093F1001092F100C8
:101880008091E8008E7794C1882309F482C1823068
:1018900009F092C180918802811185C180918A02EC
:1018A0008F702FEF280F263008F086C18093E90053
:1018B0002091EB0020FF77C1933031F48091EB0051
:1018C00080628093EB006FC19091EB0090619093E8
:1018D000EB0021E030E001C0220F8A95EAF7209367
:1018E000EA001092EA008091EB008860EACF811153
:1018F00063C1109188021F778091E3008078812B6B
:101900008093E3008091E800877F8093E8000E9445
:101910004A028091E80080FFFCCF8091E30080685C
:101920008093E30082E0111183E08093840244C13C
:101930008058823008F040C18091880290918902DD
:101940008C3D23E09207A1F583E08A838AE28983B4
:101950004FB7F894DE01139620E03EE051E2E32F0A
:10196000F0E050935700E49120FF03C0E295EF7040
:101970003F5FEF708E2F90E0EA30C0F0C7968D93F6
:101980009D932F5F243159F74FBF8091E800877FE7
:101990008093E8006AE270E0CE0101960E94F602B0
:1019A0008091E8008B778093E80006C1C096E7CF6E
:1019B00040918A0250918B02292F33272330310521
:1019C00009F444C078F52130310509F46FC08BE388
:1019D00090E0E2ECF2E02230310509F0EDC0209118
:1019E000E800277F2093E80020918C0230918D023F
:1019F0008217930708F49C0140E02115310509F096
:101A000064C0411162C08091E80082FDC9CF80911D
:101A10008402882329F2853019F28091E80083FF3F
:101A2000F2CFBECF21323105A9F12232310509F0C2
:101A3000C3C04115510509F443C04130510509F0B7
:101A4000BBC086EB90E0ECECF1E0C9CF9927813088
:101A50009105C1F0009759F0029709F0ADC0EFE091
:101A6000F3E0E4918E2F90E0EFE0F3E007C0EFE2C7
:101A7000F3E0E4918E2F90E0EFE2F3E0009709F4B9
:101A80009BC0ADCFEDE1F3E0E4918E2F90E0EDE16E
:101A9000F3E0F4CF4115510571F04130510509F0E3
:101AA0008BC089E090E0EDEEF2E099CF82E190E02A
:101AB000EDEFF2E094CF89E090E0E4EDF2E08FCF3B
:101AC00080E490E0E2E8F2E08ACF8091840288230B
:101AD00009F466CF853009F463CF8091E80083FD77
:101AE0005FCF8091E80082FD8ECF8091E80080FF7B
:101AF00084CF9091F3008091F2002115310519F007
:101B00008830910550F041E0089709F040E080915D
:101B1000E8008E778093E80070CF44914093F10005
:101B20003196215031090196E8CF803809F044C040
:101B30008091E800877F8093E80080918502809300
:101B4000F1009ECE811138C0109188021230A0F5AC
:101B50008091E800877F8093E800109385020E94BF
:101B60004A02112311F084E005C08091E30087FD53
:101B7000FACF81E08093840242E061EC81E00E9430
:101B8000690242E261EC82E00E9469028091840273
:101B900013C080918802813079F481E0933009F09C
:101BA00080E0809383021092E9008091E800877FB3
:101BB0008093E8000E944A028091E80083FF0AC0F7
:101BC0008091E800877F8093E8008091EB0080623D
:101BD0008093EB00AA96E3E00C94E91D0E94270B8A
:101BE0002FEF84E39CE0215080409040E1F700C05B
:101BF000000088E19AE00FB6F894A8958093600001
:101C00000FBE90936000FFCFA4E0B0E0EAE0FEE0FA
:101C10000C94CC1D4091190250911A0260911B0244
:101C200070911C022FB7F894809156029091570240
:101C3000A0915802B09159022FBF841B950BA60B9F
:101C4000B70B11E084369105A105B10590F10E9412
:101C50000F09882399F10E9478036E5F7F4F8F4FA1
:101C60009F4F69837A838B839C838091110190912C
:101C70001201805F9D4F4091100150E045305105A9
:101C800010F044E050E0BE016F5F7F4F0E94721E73
:101C900082E090E00E94481D182F882351F00E9496
:101CA00078036093190270931A0280931B02909339
:101CB0001C02812F2496E4E00C94E81D0E94780316
:101CC00000911E0210911F022091200230912102EA
:101CD000600F711F821F931FC0CFEF92FF921F935F
:101CE000CF93DF9300D000D00F92CDB7DEB77B014A
:101CF00090E080E00E94481D182F882309F46DC0F1
:101D00004091030150E04115510511F041E050E0D0
:101D10006091040170910501605F7D4FCE010596D1
:101D20000E94721E40910C0250910D0260910E02B1
:101D300070910F022FB7F89480915602909157023C
:101D4000A0915802B09159022FBF841B950BA60B8E
:101D5000B70B84369105A105B10538F481E192E015
:101D60000E94B9019D818917C1F181E090E00E9434
:101D7000481D882309F458C040910B0150E04530BC
:101D8000510510F044E050E060910C0170910D019C
:101D9000605F7D4FCE0101960E94721E81E192E04C
:101DA0000E94B9019D8189133FC00E94780360930E
:101DB0000C0270930D0280930E0290930F028981A2
:101DC0009A81AB81BC818093080290930902A09311
:101DD0000A02B0930B0211E00EC0809111029091A3
:101DE0001202A0911302B091140289839A83AB83EB
:101DF000BC831111E4CF8091080290910902A09157
:101E00000A02B0910B02F70180839183A283B3830E
:101E1000812F0F900F900F900F900F90DF91CF9127
:101E20001F91FF90EF90089510E0E5CFACE0B0E097
:101E3000ECE1FFE00C94C31D8E010F5F1F4F88E0A3
:101E4000D8011D928A95E9F789E5C82E81E0D82E40
:101E5000F12CE12CAA24A394B12C23E6822E21E0BC
:101E6000922EF60181916F018F3F09F442C0F894E0
:101E7000E82FE295EF70F0E021A18F70A50102C07C
:101E8000440F551F8A95E2F7CA01922F982B91A310
:101E900092A18095892382A3789400C0EDE5F1E0BA
:101EA000712C31E021912F3F09F46BC0A22FA29534
:101EB000AF70B0E090968C9190E02F7002C0959535
:101EC00087952A95E2F780FD5CC0832F782A330F2F
:101ED0008E169F0639F7F601319780818F3F11F0FA
:101EE0000E94590550EA5A95F1F7F801EE0DFF1DD1
:101EF00070828FEFE81AF80AA4E0EA16F10409F0FC
:101F0000B0CF48E050E0B80182E292E00E94651E46
:101F1000009741F028E0F801A2E2B2E001900D92B2
:101F20002A95E1F700912B02892B69F181E08093DA
:101F3000FF010E9484039093FE018093FD01809134
:101F4000FD019091FE010E946903059700F110E0E8
:101F5000005D1D4F44E050E062E272E0C8010E9463
:101F6000651EB12C892B51F084E0E2E2F2E0D80149
:101F700001900D928A95E1F7BB24B3941092FF0172
:101F800007C080E0A3CF8091FF018111D8CFB12C91
:101F90000E940F09A82EE0912B02882309F470C03B
:101FA00019861A861B861C860E2F10E0005D1D4FB9
:101FB00080911D028A3078F54DE65EE0BE01675FD4
:101FC0007F4FC8010E94DC08882309F448C044E020
:101FD0005EE0BE01675F7F4FC8010E94DC08882376
:101FE000F1F110921D0280912A0290E044E050E04D
:101FF000BE01675F7F4F805D9D4F0E94651E21E09F
:1020000020930602892BE9F4A12C8A2D8B292C968A
:10201000EDE00C94DF1D80910002909101020E947E
:102020006903843F914040F680910602882361F362
:10203000FE01399684E0DF011D928A95E9F710923E
:102040000602E0912A02F0E0E05DFD4F89859A8565
:10205000AB85BC8580839183A283B383D6CF8091E7
:102060001D028F3F31F08F5F80931D028A3008F48C
:10207000BACF0E9484039093010280930002D4CFD0
:10208000F0E0E05DFD4F84E0A1E1B2E001900D924F
:102090008A95E1F781E192E00E94B90180931002F4
:1020A000C0901502D0901602E0901702F09018022E
:1020B0008091020290910302A0910402B091050266
:1020C000C816D906EA06FB0609F49FCFC0920202A1
:1020D000D0920302E0920402F09205020E940F09DE
:1020E000811193CF0E947803C61AD70AE80AF90A29
:1020F000C0921E02D0921F02E0922002F0922102B2
:1021000084CF68EE7EEF90E080E00E944F1E60E09A
:1021100082E090E00E94311E60E083E090E00E9447
:10212000311E1092FC011092FB0160E084E090E00F
:102130000E94311E64E082E290E00E94311E60E065
:1021400085E090E00E94311E60E086E090E00E9411
:10215000311E6FEF87E090E00E94311E40E050E0BA
:10216000BA0188E090E00E94431E60E08DE090E0BC
:102170000E94311E40E050E0BA0188E190E00E94E8
:10218000431E60E087E190E00E94311E40E050E095
:10219000BA018CE190E00E94431E70E060E080E2B2
:1021A00090E00E944F1E40E050E0BA0188E190E0CC
:1021B0000E94431E40E050E0BA018FE090E00E9490
:1021C000431E40E050E0BA0183E190E00E94431ECC
:1021D0000895CF93C0915B02C2FB992790F998179D
:1021E00091F080FBC2F9C0935B0260915A0284E0D7
:1021F00090E00E94311E6C2F82E290E00E94311E1E
:1022000082E00E94CD09CF910895A5E0B0E0EBE017
:10221000F1E10C94C41D7C01FC0183819481892B24
:1022200031F08081918189238F3F09F061C4259627
:10223000ECE00C94E01D0E947207182F682F898132
:102240009A810E94E60769817A81812F0E94B305F5
:102250008C01843FFCE59F0709F483C018F5893D94
:102260009C4509F47AC00A3D8CE5180709F489C039
:10227000083D9CE5190709F526E241EE61EEC7012C
:102280000E94B90A8091D701877089F2F701828193
:10229000882369F280915B0282FFC9CF82E00E94AD
:1022A000CD09C5CF863FECE59E0709F462C008F46E
:1022B0005CC0873F9C4509F460C0F7018281882398
:1022C00009F427C4109290020430FDE51F0708F0BE
:1022D0005BC00B3F2CE5120730F4C80182509C45CF
:1022E000449708F05CC00E94190B90935B028093A6
:1022F0005A020231ECE51E0709F45CC108F0A8C0DF
:1023000009302CE5120709F433C108F072C005301A
:102310008CE5180709F41CC108F05EC00330ECE539
:102320001E0709F40DC108F00FC180915A028160A7
:1023300002302CE5120709F488C060915A0210910E
:102340005B0284E090E00E94311E612F82E290E007
:102350000E94311E0E94270B95CF27E245EE65EEC5
:102360008ECF26E241EE60EE8ACF27E245EE64EEA4
:1023700086CF26E241EE62EE82CF27E245EE66EEA0
:102380007ECF28E241E0EBCF063A3DE5130709F4A2
:10239000AACFE0F402369DE5190709F4A4CF06316F
:1023A0008CE5180709F0C4C38091F9018A7A91E09D
:1023B00009F490E09093860169E2811165E386E675
:1023C00091E00E94BA030E9443095CCFC8018E5A73
:1023D0009D45039720F787CF80915A02806207308E
:1023E0003CE5130791F108F4BFC080915A02806464
:1023F0002CC00D309CE5190709F4C4C090F48091FD
:102400005A028E7F0B30FCE51F07F9F080915A02CB
:102410008C600C302CE51207C0F080915A028D7F41
:1024200014C00F303CE5130709F4BCC008F4AEC07B
:1024300000319CE5190709F4B9C080915A028F7BDD
:102440000131ECE51E0709F078CF80935A0275CF71
:102450000115FDE51F0709F4B7C0A8F50B3F3CE5E2
:10246000130709F479C0C0F404319CE5190709F495
:10247000B9C008F4A5C00531FCE51F0709F05DCF20
:1024800080915A0282FB992790F921E0922790FBD4
:1024900082F990FB83F9D9CF0D3F2CE5120709F49F
:1024A00079C008F45DC00E3F8CE5180709F476C0CA
:1024B00080915B0283600F3F9CE5190709F03DCFD7
:1024C00080935B023ACF0236EDE51E0709F495C012
:1024D00090F402302DE5120709F48DC008F478C09D
:1024E00060E003308DE5180709F027CF8EE090E01B
:1024F0000E94311E22CF0E3A9DE51907E9F060F4E3
:1025000090915A02892F8E7F90FF8160063AFDE5F7
:102510001F0709F49ACF11CF0F3A2DE5120771F179
:10252000003B3DE5130709F008CF90915B02892F2E
:10253000877F93FF8860C4CF80915B028860C0CFA3
:1025400080915A02826081CF80915A0284607DCF4F
:1025500080915A02886079CF80915B028160B0CF10
:1025600080915B028260ACCF80915A0280616DCF16
:102570000E94270B80915A02806867CF80915B028E
:10258000877F9ECF80915A028B7F5FCF80915A02C6
:10259000877F5BCF80915B028E7F92CF80915B02C1
:1025A0008D7F8ECF80915A028F7E4FCF80915A02BD
:1025B0008F7D4BCF0E94270B80915A028F7745CF9A
:1025C00080915A02837F41CF80915B028C7F78CFCC
:1025D00080915B02982F909591708E7F892B90FB54
:1025E00081F96ECF0E94270B90915A02892F97FB99
:1025F00087F980582ACF61E079CF90915A02892FCC
:102600008F7E94FF806121CF0E94270B9FEFE4E330
:10261000FCE09150E040F040E1F700C000000E9473
:10262000580380915B0282FB882780F991E089271B
:102630000E94E910F701828100811181882309F449
:1026400045C0C8010E947207D82E682FC8010E9499
:10265000E607B8018D2D0E94B3050E94CE058C01BE
:10266000882EF701D280B580B2943FE0B3228091EA
:10267000D7018770C1F0AD2CDD20B1F0812F807FB4
:10268000803421F080E2800F883068F080915B0216
:1026900082FF09C082E00E94CD098091D701877036
:1026A000AA24A3948111A12C912E92942FE092221E
:1026B000FBE0F91508F476C0E92DF0E0E957F14E9A
:1026C0000C94091E81E0B4CF80E0B2CFC8010E9413
:1026D000B307D82EBECF212F2F70C22E107F19F036
:1026E000C29490EFC922DD20B9F0CC2069F080E2DD
:1026F000800F883010F0811009C08091F901C82A3C
:10270000C092F9010E944309802F4AC08091F801CC
:10271000C82AC092F801F6CF802F0E94110ACC205F
:1027200009F440C0005E083010F0811004C08C2D08
:102730000E94610706C0C0948091F801C822C0922F
:10274000F8010E9443092EC0312F3F70C32E107F25
:10275000103219F0C29480EFC822882089F081E0FD
:10276000881609F477C0DD2009F481C0BB2009F484
:1027700077C0F701858180FFC7CF8F70858370C0D8
:1027800020915B0222FD43C0DD20D9F1CC2039F03D
:102790008091F901C82AC092F9010E94430980E0A2
:1027A0000E94460AE92DE850FF0B349710F40E946E
:1027B0003209AA20A9F08091D70180FD11C0F7014C
:1027C00012828595859585950E94E909C7010E9429
:1027D00005118091D7018595859585950E94BB0946
:1027E00085E0F701DE01119601900D928A95E1F7DF
:1027F00009811A81C8010E94B307B8010E94B3057C
:1028000016CD80E00E94110ACC2061F290CFDD202D
:10281000A1F09091FA018C2D892BB11003C00E9478
:10282000070AC0CFE1E0BE12FACF22FFBBCF981754
:1028300009F4B8CF8093FA01B5CFB11006C00E9459
:102840005B078C2D0E94000AADCFF1E0BF1609F4A2
:10285000A9CFF5CFDD2031F025E02B1508F4A2CF6C
:102860008C2DDDCF34E03B1508F49CCFEACFBB20A4
:1028700041F3F9E38F1235C12FEF37EE83E021509A
:1028800030408040E1F700C000002BC1812F8695C9
:102890008695837061F0813009F084CFC801937010
:1028A000D11002C090E080E00E94EF037BCFC8010E
:1028B0009370D11002C090E080E00E94050472CFB6
:1028C000802FDD2029F00E94FD040E941B046ACFA6
:1028D0000E944204FACF812F837009F03FC0D110CB
:1028E00061CF402F429546954770440F440F802F8B
:1028F0008F7090E0042E02C0880F991F0A94E2F7AF
:1029000030E020E004FF09C02FE030E002C0220FD9
:10291000331F4A95E2F7209530951695169513705A
:10292000123099F078F44091FB015091FC01113084
:1029300039F0822B932B842395230E94F90932CFFF
:10294000842B952B822B932BF8CF822B932B2091CA
:10295000FB013091FC0182279327EFCF8695DD2084
:1029600011F0812F8170882309F41CCF402F4295EC
:1029700046954770440F440F802F8F7090E0042ECF
:1029800002C0880F991F0A94E2F730E020E004FFAC
:1029900009C02FE030E002C0220F331F4A95E2F752
:1029A00020953095169516951370123099F078F49D
:1029B00040912C0250912D02113039F0822B932B33
:1029C000842395230E94B409EDCE842B952B822B72
:1029D000932BF8CF822B932B20912C0230912D0238
:1029E00082279327EFCF1F70DD2029F0812F0E94CF
:1029F000E909802F14CF802F0E94000A812F0E94A6
:102A0000BB09D0CE802F92EF891699F1981570F0FE
:102A1000E0EF8E16D1F0F1EF8F1691F0DD2009F482
:102A20005BC0B11071CE812F8F7127C023EF82164A
:102A300039F134EF8312F2CF80915B0282FD2EC018
:102A4000812F8F71DD20D9F218C0DD2069F084E07C
:102A50008B1508F4A7CE1F7181E090E002C0880FAB
:102A6000991F1A95E2F7B8CF95E09B1508F49ACE16
:102A7000F2CF812F8F71D110C2CF0E94E90992CE7F
:102A800090E080E0DD2009F49DCF1F7181E090E0AF
:102A900002C0880F991F1A95E2F794CFDD2089F0C4
:102AA0001F71812F0E94E90980915B0282FF07C09C
:102AB000E8E01E9FC001112483608093D701812F1D
:102AC000DCCF81E00E94CD09F1E0FB1508F06ACE71
:102AD00082E00E94CD0966CEBB2039F0893309F42B
:102AE000CBCE802F0E94110A5DCE812F8F7187CFB0
:102AF00085E0DE01119601900D928A95E1F7F701CC
:102B0000228189819A81211196CB0E94B307182FC7
:102B10009ACB0631FCE51F0709F08CCD8091860128
:102B200069E2811165E386E691E00E9490034BCC57
:102B30000B352DE5120709F4C5CD68F401158CE5B8
:102B4000180709F461CD0F3D1C4509F073CD0E94B3
:102B500081100E94EE0D0D35EDE51E0709F461CDE3
:102B600008F4B2CD083A1D45A1F364CD1F93CF936D
:102B7000DF938091A401807F09F049C08091A10179
:102B8000882309F444C08091D601D091A5016091B9
:102B90009F017091A001A091A201B091A301C62F45
:102BA000C72316E0D81799F190E0109711F0CF3FA6
:102BB00019F401968770F6CF189F9001199F300D78
:102BC0001124F901EA55FE4F41814713F2CF4081AC
:102BD0004613EFCF42814111ECCF438154814A1B10
:102BE0005B0B483C510528F78091A4018F708061F0
:102BF0008093A401F901E555FE4F80818F708061BB
:102C000080838FE991E00E9405110E946807DF919F
:102C1000CF911F910895A1E1B0E0E1E1F6E10C94BC
:102C2000C61D8C0185E0F801DE011D9601900D9214
:102C30008A95E1F7F801E2808FE9A82E81E0B82EAD
:102C40006091A2017091A3016115710509F426C17B
:102C500090919F014091A001892F84238F3F09F417
:102C60001DC120813181C380D480F090A101F60183
:102C7000E61BF70BFF2009F4DCC08091A401582F5C
:102C8000507FE83CF10508F09FC051116BC0FE2C4D
:102C9000431314C0921312C0E11010C08F708061F2
:102CA0008093A401C5010E9405118091A401F8013F
:102CB00085838F2D6196EAE00C94E21DC114D10446
:102CC00029F0822F83238F3F09F003C180E0F82F82
:102CD000F170DF2E80FF3CC08091D6014091A501AC
:102CE00056E0841315C02D873E878D859E850E94F2
:102CF000A607292F22952F702230F0F0243018F5E6
:102D00009F70F1F0F8019581907FD1F4D12C1EC015
:102D100090E0589FF001599FF00D1124EA55FE4FA5
:102D20006181361306C06081261303C06281E612FA
:102D30000FC001968770D5CF9F7011F0882331F3B3
:102D4000805E883018F3C8010E940511FD2CB1CFB8
:102D5000EE2009F4AECF8091A40181608093A4019C
:102D6000F12CA7CF431306C0921304C0F801EE2044
:102D700009F479C0C8010E941C08882309F1EE20DB
:102D8000F9F08091A401803270F020919F01309180
:102D9000A00138872F831986DB86CA868C87CE01EF
:102DA00007960E94051186E0F801AFE9B1E00190B5
:102DB0000D928A95E1F70E94B615FF24F39479CF1E
:102DC000C8010E940511F9CF51110AC08FE991E0A5
:102DD0000E94051186E0F50111928A95E9F7C0CFAE
:102DE00043130FC092130DC0E1100BC0F80185838F
:102DF000C8010E94051186E0F50111928A95E9F754
:102E000058CFC8010E941C088823D1F2EE20C1F2DD
:102E10008091A401803238F220919F013091A0016D
:102E20003A8329831B82DD82CC828E83CE01019678
:102E3000B8CFE83CF105F8F6FE2CEE2009F243137A
:102E40001FC092131DC08091A40180FD10C0982F57
:102E5000907F69F0F8018583903F31F0982F907F43
:102E6000905F8F70892B8583C8010E94051186E0D1
:102E7000F801AFE9B1E001900D928A95E1F719CF21
:102E8000C8010E941C0881118ECF8091A40181602D
:102E90008093A401C8010E9405110BCFEE2009F414
:102EA0008FCFC8010E941C08F82E882309F488CF10
:102EB00086E0F801AFE9B1E001900D928A95E1F763
:102EC00080919F019091A0010E94A6070E94B615D3
:102ED000F0CE81E08E25FBCEA7E1B0E0E2E7F7E19E
:102EE0000C94CD1D4B8B5C8B6D8B7E8B8F8B61110E
:102EF0001092F8011A8A198A85E0FE017396DE01A4
:102F00001D9601900D928A95E1F786E0FE013D96AF
:102F1000DE01179601900D928A95E1F7CE01079692
:102F20000E940B16811112C086E0FE013796DE0169
:102F3000119601900D928A95E1F78A859B85892BE0
:102F400029F088859F8189238F3F81F516E0809144
:102F5000D6019091A501891317C06796E3E00C9400
:102F6000E91D96E0929FD001939FB00D1124AA55C0
:102F7000BE4FFE01319601900D929A95E1F7809334
:102F8000A5010E946807E2CF819FC00111248A55E4
:102F90009E4F0E940B16882301F38091D60190E08A
:102FA0000196877099278093D601D1CF2091A501F2
:102FB00030E0C9010196877099274091D6014817E2
:102FC000190679F60E94270B1092A5011092D601DE
:102FD00086E0EFE9F1E0DF011D928A95E9F7B6CFCF
:102FE0001F920F920FB60F9211242F933F934F937E
:102FF0005F936F937F938F939F93AF93BF93CF9381
:10300000DF93EF93FF93D091E900DF708091EC00A4
:10301000C82FC17080FDC0E81092E9008091F000D7
:10302000877F8093F00078940E943D0B1092E90016
:103030008091F00088608093F000CD2BCF70C0931A
:10304000E900FF91EF91DF91CF91BF91AF919F91F7
:103050008F917F916F915F914F913F912F910F9041
:103060000FBE0F901F9018951F920F920FB60F92E0
:1030700011242F933F934F935F936F937F938F937D
:103080009F93AF93BF93EF93FF938091E10082FFF3
:1030900009C08091E20082FF05C08091E1008B7F32
:1030A0008093E1008091DA0080FF24C08091D800F5
:1030B00080FF20C08091DA008E7F8093DA008091BB
:1030C000D90080FF9DC080E189BD82E189BD09B43E
:1030D00000FEFDCF81E08093840280915F02811128
:1030E00009C00E94D0010E949B028091E20084608E
:1030F0008093E2008091E10080FF17C08091E200A0
:1031000080FF13C08091E2008E7F8093E200809167
:10311000E20080618093E2008091D8008062809319
:10312000D80019BC85E0809384028091E10084FF7F
:103130002BC08091E20084FF27C080E189BD82E13D
:1031400089BD89B5982F917080FFFBCF8091D80001
:103150008F7D8093D8008091E1008F7E8093E10085
:103160008091E2008F7E8093E2008091E200816096
:103170008093E20080918502882309F447C084E0AF
:1031800080938402809184028091E10083FF27C0B4
:103190008091E20083FF23C08091E100877F8093CC
:1031A000E10082E080938402109285028091E10028
:1031B0008E7F8093E1008091E2008E7F8093E20019
:1031C0008091E20080618093E20042E060E080E074
:1031D0000E9469028091F00088608093F000FF9166
:1031E000EF91BF91AF919F918F917F916F915F917F
:1031F0004F913F912F910F900FBE0F901F901895F8
:1032000019BC1092840210925F0274CF8091E30087
:1032100087FD93E090938402B5CF78941F921FB6F8
:103220001F9211248F939F93AF93BF938091560267
:1032300090915702A0915802B09159020196A11D98
:10324000B11D8093560290935702A0935802B093F9
:103250005902BF91AF919F918F911F901FBE1F90F8
:1032600018951F921FB61F9211248F939F93AF93AF
:10327000BF9380915502811113C0809156029091A5
:103280005702A0915802B09159024196A11DB11D5B
:103290008093560290935702A0935802B09359021C
:1032A000BF91AF919F918F911F901FBE1F90189556
:1032B000CDB7DEB760970FB6F894DEBF0FBECDBFB7
:1032C00085B7806885BF85B7806885BF84B7877FED
:1032D00084BF0FB6F894A8958091600088618093B0
:1032E0006000109260000FBE80E890E00FB6F89486
:1032F00080936100909361000FBE87E595E0909305
:103300006501809364010E94D0010E949B0280911C
:10331000E20084608093E2007894809184028823A4
:10332000A1F01091E9001F709091EC00892F81703D
:1033300090FD80E8182B1092E9008091E80083FD51
:103340000E943D0B1F701093E90082E084BD93E062
:1033500095BD9AEF97BD80936E0010921E02109259
:103360001F0210922002109221020E940F098093E6
:1033700018010E940F0981110E945C1C80911801A4
:103380008091180194E0811190E090932B0284E0E9
:10339000891B80932A0284E90E94590586E60E94CF
:1033A000590587E90E94590586EC0E9459050DE5EB
:1033B00011E043E6E42E41E0F42ED8018D918D0119
:1033C0008F3F11F00E945905E016F106B1F788E031
:1033D000E0E3F2E0DF01282F1D922A95E9F7E2E20F
:1033E000F2E0DF011D928A95E9F790E080E00E940B
:1033F0002B1E883E9E4F11F00E94811082E090E0CB
:103400000E94231E809338020E94190B90935B0246
:1034100080935A020E94160FEFE3FCE93197F1F70F
:1034200000C000000E94160F0E940F09E4E0811105
:10343000E0E0F0E0E05DFD4F808181FF08C06FEFCC
:103440007FEF90E080E00E944F1E0E94580383E0CF
:1034500090E00E94231E90E00E94F9090E940F094B
:10346000811102C00E945F1C89E191E09093520299
:103470008093510228E1C22ED12C38E3A32E32E0F2
:10348000B32E91E4892E92E0992E8091840200E17E
:1034900012E1853009F47EC00E94160F09E312E0A4
:1034A00080E3E82E82E0F82ED701F80191918D910A
:1034B0008E169F0609F478C09817C1F30E940F0971
:1034C000282E712CD7016D907D01F80131908F016C
:1034D000361429F1512C442443943624832D84211D
:1034E000B1F02220A1F05C867D8691E0842D8621BA
:1034F00009F490E09E870E9484038160782F988B66
:103500008F874C855D856E8588890E946C175394E2
:10351000440CF6E05F12E2CFF801319760827394B9
:1035200028E07212CFCF0E9478035EC0809184029F
:10353000843011F110925502F0E40FB6F894A8957A
:10354000C09260000FBEF093600083B7817F8460FB
:1035500083BF83B7816083BF7894889583B78E7F5C
:1035600083BF0FB6F894A89580916000886180931E
:103570006000109260000FBE80918302882351F09A
:103580000E94160FE0E3F2E0819181111BC1AE169B
:10359000BF06D1F780918402853009F4C7CF0E941D
:1035A000270B0E94320978CF981388CF0E9484039A
:1035B0008C0180912E0290912F0208171907A1F01B
:1035C0008FEF8F83888719860E9484038160782F0C
:1035D0009B878A874F81588569858B850E946C17E8
:1035E00010932F0200932E020E940F0986E0E9E457
:1035F000F2E0DE01119601900D928A95E1F71092AA
:103600004B0210924C0210924D0210924E028B818E
:103610009C81892B09F44AC080914702909148020D
:103620000E9469039C0190914302992309F4E5C02B
:1036300025313105D8F19F3F19F09F5F90934302E8
:103640001B81112359F00E94DD049FEF11160CF429
:1036500091E0899F802D112480934B021C811123BE
:1036600059F00E94DD049FEF11160CF491E0899F40
:10367000802D112480934C0230914B023323B1F002
:1036800020914C02222391F045EB3403C001112418
:10369000992309F487C090934B0245EB24039001D2
:1036A0001124332309F482C030934C028D819E8112
:1036B000892B09F449C080914502909146020E94ED
:1036C00069039C0190914202992309F491C021352C
:1036D0003105D0F19F3F19F09F5F909342021D8109
:1036E000112359F00E94BB049FEF11160CF491E0D6
:1036F000899F802D112480934D021E81112359F042
:103700000E94BB049FEF11160CF491E0899F802D5D
:10371000112480934E0230914D023323A9F0209161
:103720004E02222389F045EB3403C0011124992372
:1037300009F440C090934D0245EB240390011124FD
:103740003323E1F130934E0246E050E0BE016F5F5B
:103750007F4F89E492E00E94651E892B61F480917D
:103760004B0290914C02892B90914D02892B9091A4
:103770004E02892B11F00E941B0486E0FE01319657
:10378000A9E4B2E001900D928A95E1F70E94320916
:1037900090914102891709F478CE809341020E94EA
:1037A00078036FCE81E080934B0277CF81E08093E6
:1037B0004C027CCF81E080934D02BECF81E08093AC
:1037C0004E02C2CF09BD19BD09B400FEFDCF8091E4
:1037D000D8008F7D8093D8008091E0008260809334
:1037E000E0008091E00081FDFCCF0E94270BD2CE4B
:1037F0002B30310508F070CFA7CF2B30310508F002
:103800001CCF54CF8EE14A9B02C08150E1F74A9B06
:10381000FECF08955A9880E28A95F1F75A9A089552
:10382000FC013BE03A95F1F798E020E080E031E0E0
:1038300040E14A95F1F7880F4A9B02C08160232737
:1038400042E04A95F1F7000040E14A95F1F79150C6
:1038500079F790E19A95F1F799B132E03A95F1F75D
:10386000000040E14A95F1F792FB992790F99227E1
:103870002081920F90830895A1E0B0E0E2E4FCE1A2
:103880000C94CA1D19828C017C01E60EF11C0E15E8
:103890001F0541F481E09981911180E02196E6E0D5
:1038A0000C94E61D0E94021CCE0101960E94101C81
:1038B000F80181938F01EBCF529A5A9A089552984A
:1038C0005A9AEA9AE9E6F0E080818F7C8083089535
:1038D0006150770B91E001C0990F6A95EAF720E0FB
:1038E00031E0911108C0222391F05A9A80E28A9522
:1038F000F1F75A980895492F482339F05A9A232707
:1039000040E24A95F1F79695ECCF5A98F9CF5A983C
:10391000EDCFFF920F931F93CF93DF93EC018C01B8
:10392000060F111DC017D10729F4CDB7DEB7E5E0AA
:103930000C94E71DF9900E940A1C68E08F2D0E94EC
:10394000681CF0CF1F920F920FB60F9211240F93A5
:103950001F932F933F934F935F936F937F938F9317
:103960009F93AF93BF93EF93FF93CF93DF930F9208
:10397000CDB7DEB719820E94021CCE0101960E94CB
:10398000101C082F069506950695282F2295257060
:10399000902F9570290F922F937026952695920F50
:1039A000982797708981982B09F05CC0043008F043
:1039B00059C080E18A95F1F75A9A529A82E08A9525
:1039C000F1F700C05A9888E0089F80011124D801BF
:1039D000A050BF4F1696ED91FC9117973097A9F024
:1039E000609157017091580114962D913C91159753
:1039F000260F371F11968D919C911297680F791F92
:103A000013964C9113978C910995F801E050FF4F54
:103A10006381662351F020915701309158018481D0
:103A20009581820F931F0E94891C0E940A1C80E1CD
:103A30008A95F1F75A9852985A9A80E18A95F1F747
:103A4000F801E050FF4F6081662351F0209157014B
:103A50003091580181819281820F931F0E943C1CFA
:103A60000E94021C0F90DF91CF91FF91EF91BF91C7
:103A7000AF919F918F917F916F915F914F913F9106
:103A80002F911F910F910F900FBE0F901F901895BF
:103A90000F931F93CF93DF93EC0104970CF04CC06E
:103AA000F894529A5A9885E08A95F1F700009C2F75
:103AB000969595708C2F8570980F892F83709695A9
:103AC000969523E0CC0FDD1F2A95E1F7980F8E0124
:103AD000092B0E940A1C00C068E0802F0E94681C0D
:103AE00080E18A95F1F752985A9A4A9B1EC087E066
:103AF00090E04A991CC0FE01E050FF4F63816623AD
:103B0000F9F0209157013091580184819581820FFD
:103B1000931F0E943C1C811113C0529A5A9A7894A8
:103B2000DF91CF911F910F91089500C0DECF0197D3
:103B300029F4529A5A9A789480E0F2CF00C0D9CFF3
:103B40000E94021C80E28A95F1F75A98529A80E10D
:103B50008A95F1F7C050DF4F6881662351F02091BC
:103B600057013091580189819A81820F931F0E94D9
:103B7000891C0E940A1C789481E0D2CF2F923F9238
:103B80004F925F926F927F928F929F92AF92BF926D
:103B9000CF92DF92EF92FF920F931F93CF93DF9319
:103BA000CDB7DEB7CA1BDB0B0FB6F894DEBF0FBE76
:103BB000CDBF09942A88398848885F846E847D84C3
:103BC0008C849B84AA84B984C884DF80EE80FD80C5
:103BD0000C811B81AA81B981CE0FD11D0FB6F8943B
:103BE000DEBF0FBECDBFED01089597FB072E16F483
:103BF000009407D077FD09D00E940F1E07FC05D066
:103C00003EF4909581959F4F0895709561957F4FF3
:103C10000895EE0FFF1F0590F491E02D0994AA1B63
:103C2000BB1B51E107C0AA1FBB1FA617B70710F0A7
:103C3000A61BB70B881F991F5A95A9F780959095D9
:103C4000BC01CD010895F999FECF92BD81BDF89ACE
:103C5000992780B50895A8E1B0E042E050E00C94C7
:103C6000571E262FF999FECF92BD81BDF89A019774
:103C700000B4021639F01FBA20BD0FB6F894FA9AB4
:103C8000F99A0FBE08950396272F0E94321E0E94B4
:103C9000311E252F0E94321E242F0C94321E0196B5
:103CA000272F0E94321E0C94311EDC01CB01FC0137
:103CB000F999FECF06C0F2BDE1BDF89A319600B485
:103CC0000D9241505040B8F70895FB01DC0104C04B
:103CD0008D910190801921F441505040C8F7881B04
:103CE000990B0895FB01DC0102C001900D92415037
:103CF0005040D8F70895F894FFCF1C0C440CDC0D0D
:103D0000440CDC0D770C980CDC0D950DA20D6B139B
:103D10006B13A413A41346146014D213D2136B14A0
:063D2000F3140215021568
:103D26000000000100000000000000040100000087
:103D360004050000000000000155039C087B08767E
:103D4600087108540301818283E200E900EA00B5A4
:103D560000B600B700CD008301CC008A0192019421
:103D6600012102230224022502260227022A02B387
:103D760000B4006F0070001002946697C6F4F5F662
:043D8600F7313300DE
:00000001FF
